{
  "contractName": "Guess6",
  "abi": [
    {
      "inputs": [],
      "payable": false,
      "stateMutability": "nonpayable",
      "type": "constructor"
    },
    {
      "constant": false,
      "inputs": [],
      "name": "kill",
      "outputs": [],
      "payable": false,
      "stateMutability": "nonpayable",
      "type": "function"
    },
    {
      "constant": true,
      "inputs": [
        {
          "name": "guess0",
          "type": "uint8"
        },
        {
          "name": "guess1",
          "type": "uint8"
        },
        {
          "name": "guess2",
          "type": "uint8"
        },
        {
          "name": "guess3",
          "type": "uint8"
        },
        {
          "name": "guess4",
          "type": "uint8"
        },
        {
          "name": "guess5",
          "type": "uint8"
        }
      ],
      "name": "makeGuessesArray",
      "outputs": [
        {
          "name": "",
          "type": "uint256[7]"
        },
        {
          "name": "",
          "type": "string"
        }
      ],
      "payable": false,
      "stateMutability": "view",
      "type": "function"
    },
    {
      "constant": true,
      "inputs": [
        {
          "name": "guesses",
          "type": "uint8[6]"
        }
      ],
      "name": "createGuesses",
      "outputs": [
        {
          "name": "",
          "type": "uint256[7]"
        },
        {
          "name": "",
          "type": "string"
        }
      ],
      "payable": false,
      "stateMutability": "view",
      "type": "function"
    }
  ],
  "bytecode": "0x6060604052341561000f57600080fd5b336000806101000a81548173ffffffffffffffffffffffffffffffffffffffff021916908373ffffffffffffffffffffffffffffffffffffffff1602179055506107538061005e6000396000f300606060405260043610610057576000357c0100000000000000000000000000000000000000000000000000000000900463ffffffff16806341c0e1b51461005c57806355a494c81461007157806399c52a181461017b575b600080fd5b341561006757600080fd5b61006f610269565b005b341561007c57600080fd5b6100d1600480803560ff1690602001909190803560ff1690602001909190803560ff1690602001909190803560ff1690602001909190803560ff1690602001909190803560ff169060200190919050506102fa565b6040518083600760200280838360005b838110156100fc5780820151818401526020810190506100e1565b5050505090500180602001828103825283818151815260200191508051906020019080838360005b8381101561013f578082015181840152602081019050610124565b50505050905090810190601f16801561016c5780820380516001836020036101000a031916815260200191505b50935050505060405180910390f35b341561018657600080fd5b6101bf6004808060c0019060068060200260405190810160405280929190826006602002808284378201915050505050919050506103f1565b6040518083600760200280838360005b838110156101ea5780820151818401526020810190506101cf565b5050505090500180602001828103825283818151815260200191508051906020019080838360005b8381101561022d578082015181840152602081019050610212565b50505050905090810190601f16801561025a5780820380516001836020036101000a031916815260200191505b50935050505060405180910390f35b6000809054906101000a900473ffffffffffffffffffffffffffffffffffffffff1673ffffffffffffffffffffffffffffffffffffffff163373ffffffffffffffffffffffffffffffffffffffff1614156102f8576000809054906101000a900473ffffffffffffffffffffffffffffffffffffffff1673ffffffffffffffffffffffffffffffffffffffff16ff5b565b6103026106c0565b61030a6106e8565b6103126106fc565b8881600060068110151561032257fe5b602002019060ff16908160ff16815250508781600160068110151561034357fe5b602002019060ff16908160ff16815250508681600260068110151561036457fe5b602002019060ff16908160ff16815250508581600360068110151561038557fe5b602002019060ff16908160ff1681525050848160046006811015156103a657fe5b602002019060ff16908160ff1681525050838160056006811015156103c757fe5b602002019060ff16908160ff16815250506103e1816103f1565b9250925050965096945050505050565b6103f96106c0565b6104016106e8565b6104096106c0565b6000806104146106e8565b60008088600560068110151561042657fe5b602002015189600460068110151561043a57fe5b60200201518a600360068110151561044e57fe5b60200201518b600260068110151561046257fe5b60200201518c600160068110151561047657fe5b60200201518d600060068110151561048a57fe5b6020020151010101010160ff169450600093508461ffff166064428115156104ae57fe5b040191506009828115156104be57fe5b068660006007811015156104ce57fe5b6020020181815250506003828115156104e357fe5b068660016007811015156104f357fe5b60200201818152505060058281151561050857fe5b0686600260078110151561051857fe5b60200201818152505060078281151561052d57fe5b0686600360078110151561053d57fe5b60200201818152505060088281151561055257fe5b0686600460078110151561056257fe5b60200201818152505060028281151561057757fe5b0686600560078110151561058757fe5b602002018181525050818660066007811015156105a057fe5b602002018181525050600090505b60068160ff16101561060557888160ff166006811015156105cb57fe5b602002015160ff16868260ff166007811015156105e457fe5b602002015114156105f85783806001019450505b80806001019150506105ae565b60068461ffff16141561067657606060405190810160405280603381526020017f796f7520676f742074686520466c61673a20205750497b416c6c5f4861696c5f81526020017f5468655f4d69676874795f566974616c696b7d0000000000000000000000000081525092506106af565b6040805190810160405280600981526020017f54727920616761696e000000000000000000000000000000000000000000000081525092505b858397509750505050505050915091565b60e0604051908101604052806007905b60008152602001906001900390816106d05790505090565b602060405190810160405280600081525090565b60c0604051908101604052806006905b600060ff1681526020019060019003908161070c57905050905600a165627a7a72305820a3978717b60524912a1aa05a6f6d41f7dadb902f6ef4c5d01427da8a8d8de8670029",
  "source": "pragma solidity ^0.4.17;\r\ncontract Guess6 {\r\n    //global variables\r\n    address owner;\r\n    //modifiers\r\n    modifier restricted() {\r\n        require(msg.sender == owner);\r\n        _;\r\n    }\r\n    // initialize\r\n    function Guess6() public {\r\n        owner = msg.sender;\r\n    }\r\n    function kill() public {\r\n        if(msg.sender == owner) selfdestruct(owner);\r\n    }\r\n\r\n    function makeGuessesArray(uint8 guess0, uint8 guess1, uint8 guess2, uint8 guess3, uint8 guess4, uint8 guess5) public view returns(uint[7], string)  {\r\n        uint8[6] memory guesses;\r\n        guesses[0] = guess0;\r\n        guesses[1] = guess1;\r\n        guesses[2] = guess2;\r\n        guesses[3] = guess3;\r\n        guesses[4] = guess4;\r\n        guesses[5] = guess5;\r\n        return createGuesses(guesses);\r\n    }\r\n\r\n    function createGuesses(uint8[6] guesses) public view returns (uint[7], string) {\r\n        uint[7] memory resultArray;\r\n        uint16 adder = guesses[0] + guesses[1] + guesses[2] + guesses[3] + guesses[4] + guesses[5];\r\n        uint16 correctCount = 0;\r\n        string memory result_answer;\r\n\r\n        uint timeNow  = now/100 + adder;\r\n        resultArray[0] = timeNow % 9;\r\n        resultArray[1] = timeNow % 3;\r\n        resultArray[2] = timeNow % 5;\r\n        resultArray[3] = timeNow % 7;\r\n        resultArray[4] = timeNow % 8;\r\n        resultArray[5] = timeNow % 2;\r\n\r\n        resultArray[6] = timeNow;\r\n\r\n        for(uint8 i = 0; i < 6; i++){\r\n            if(resultArray[i] == guesses[i]) {\r\n                correctCount++;\r\n          }\r\n        }\r\n        if (correctCount == guesses.length){\r\n            result_answer = \"you got the Flag:  WPI{All_Hail_The_Mighty_Vitalik}\";\r\n        } else {\r\n            result_answer = \"Try again\";\r\n        }\r\n      return (resultArray, result_answer);\r\n    }\r\n}\r\n",
  "sourcePath": "C:\\Users\\glgai\\ChainSkills\\CTF\\guess\\contracts\\guess6.sol",
  "compiler": {
    "name": "solc",
    "version": "0.4.19+commit.c4cbbb05.Emscripten.clang"
  },
  "schemaVersion": "2.0.0",
  "updatedAt": "2018-04-09T18:45:17.776Z"
}